{"abi":[{"type":"constructor","inputs":[{"name":"_verifier","type":"address","internalType":"contract HonkVerifier"}],"stateMutability":"nonpayable"},{"type":"function","name":"getVerifiedCount","inputs":[],"outputs":[{"name":"","type":"uint256","internalType":"uint256"}],"stateMutability":"view"},{"type":"function","name":"verifiedCount","inputs":[],"outputs":[{"name":"","type":"uint256","internalType":"uint256"}],"stateMutability":"view"},{"type":"function","name":"verifier","inputs":[],"outputs":[{"name":"","type":"address","internalType":"contract HonkVerifier"}],"stateMutability":"view"},{"type":"function","name":"verifyProof","inputs":[{"name":"proof","type":"bytes","internalType":"bytes"}],"outputs":[{"name":"","type":"bool","internalType":"bool"}],"stateMutability":"nonpayable"},{"type":"event","name":"ProofVerified","inputs":[{"name":"by","type":"address","indexed":true,"internalType":"address"},{"name":"newCount","type":"uint256","indexed":false,"internalType":"uint256"}],"anonymous":false}],"bytecode":{"object":"0x6080604052348015600e575f5ffd5b50604051610480380380610480833981016040819052602b91604e565b5f80546001600160a01b0319166001600160a01b03929092169190911790556079565b5f60208284031215605d575f5ffd5b81516001600160a01b03811681146072575f5ffd5b9392505050565b6103fa806100865f395ff3fe608060405234801561000f575f5ffd5b506004361061004a575f3560e01c80632b7ac3f31461004e57806355c265fe146100975780636bfe4ec2146100ba578063cb794042146100d1575b5f5ffd5b5f5461006d9073ffffffffffffffffffffffffffffffffffffffff1681565b60405173ffffffffffffffffffffffffffffffffffffffff90911681526020015b60405180910390f35b6100aa6100a536600461023e565b6100d9565b604051901515815260200161008e565b6100c360015481565b60405190815260200161008e565b6001546100c3565b5f80546040805183815260208101918290527fea50d0e400000000000000000000000000000000000000000000000000000000909152829173ffffffffffffffffffffffffffffffffffffffff169063ea50d0e49061013f9087908790602481016102ac565b602060405180830381865afa15801561015a573d5f5f3e3d5ffd5b505050506040513d601f19601f8201168201806040525081019061017e9190610342565b9050806101eb576040517f08c379a000000000000000000000000000000000000000000000000000000000815260206004820152600d60248201527f496e76616c69642070726f6f6600000000000000000000000000000000000000604482015260640160405180910390fd5b60018054905f6101fa83610368565b909155505060015460405190815233907f083422d6965cdd1f231928e4d7e7ca80e8f96f22f8a0ba55bf9c6a4b38b70d8a9060200160405180910390a29392505050565b5f5f6020838503121561024f575f5ffd5b823567ffffffffffffffff811115610265575f5ffd5b8301601f81018513610275575f5ffd5b803567ffffffffffffffff81111561028b575f5ffd5b85602082840101111561029c575f5ffd5b6020919091019590945092505050565b60408152826040820152828460608301375f606084830101525f7fffffffffffffffffffffffffffffffffffffffffffffffffffffffffffffffe0601f85011682016060810160608483030160208501528085518083526080840191506020870193505f92505b808310156103365783518252602082019150602084019350600183019250610313565b50979650505050505050565b5f60208284031215610352575f5ffd5b81518015158114610361575f5ffd5b9392505050565b5f7fffffffffffffffffffffffffffffffffffffffffffffffffffffffffffffffff82036103bd577f4e487b71000000000000000000000000000000000000000000000000000000005f52601160045260245ffd5b506001019056fea264697066735822122040cca9cc54ab10e428da5670872abf15b0cfa882a045ccb63fc8047303db56c764736f6c634300081e0033","linkReferences":{}},"methodIdentifiers":{"getVerifiedCount()":"cb794042","verifiedCount()":"6bfe4ec2","verifier()":"2b7ac3f3","verifyProof(bytes)":"55c265fe"},"id":0}